{
  "_format": "hh-sol-artifact-1",
  "contractName": "Donation",
  "sourceName": "contracts/Donation.sol",
  "abi": [
    {
      "anonymous": false,
      "inputs": [
        {
          "indexed": true,
          "internalType": "uint256",
          "name": "id",
          "type": "uint256"
        },
        {
          "indexed": false,
          "internalType": "address",
          "name": "owner",
          "type": "address"
        },
        {
          "indexed": false,
          "internalType": "uint256",
          "name": "donationAmount",
          "type": "uint256"
        },
        {
          "indexed": false,
          "internalType": "uint256",
          "name": "donersConut",
          "type": "uint256"
        },
        {
          "indexed": false,
          "internalType": "uint256",
          "name": "startDate",
          "type": "uint256"
        },
        {
          "indexed": false,
          "internalType": "uint256",
          "name": "endDate",
          "type": "uint256"
        },
        {
          "indexed": false,
          "internalType": "uint256",
          "name": "targetPrice",
          "type": "uint256"
        },
        {
          "indexed": false,
          "internalType": "string",
          "name": "category",
          "type": "string"
        },
        {
          "indexed": false,
          "internalType": "string",
          "name": "title",
          "type": "string"
        },
        {
          "indexed": false,
          "internalType": "string",
          "name": "hash",
          "type": "string"
        },
        {
          "indexed": false,
          "internalType": "string",
          "name": "description",
          "type": "string"
        },
        {
          "indexed": false,
          "internalType": "bool",
          "name": "completed",
          "type": "bool"
        }
      ],
      "name": "DonationItemCreated",
      "type": "event"
    },
    {
      "anonymous": false,
      "inputs": [],
      "name": "DonationTiped",
      "type": "event"
    },
    {
      "inputs": [
        {
          "internalType": "uint256",
          "name": "_id",
          "type": "uint256"
        }
      ],
      "name": "addDonation",
      "outputs": [],
      "stateMutability": "payable",
      "type": "function"
    },
    {
      "inputs": [],
      "name": "donationCount",
      "outputs": [
        {
          "internalType": "uint256",
          "name": "",
          "type": "uint256"
        }
      ],
      "stateMutability": "view",
      "type": "function"
    },
    {
      "inputs": [
        {
          "internalType": "uint256",
          "name": "",
          "type": "uint256"
        },
        {
          "internalType": "uint256",
          "name": "",
          "type": "uint256"
        }
      ],
      "name": "doners",
      "outputs": [
        {
          "internalType": "address",
          "name": "",
          "type": "address"
        }
      ],
      "stateMutability": "view",
      "type": "function"
    },
    {
      "inputs": [],
      "name": "donersCount",
      "outputs": [
        {
          "internalType": "uint256",
          "name": "",
          "type": "uint256"
        }
      ],
      "stateMutability": "view",
      "type": "function"
    },
    {
      "inputs": [
        {
          "internalType": "uint256",
          "name": "",
          "type": "uint256"
        }
      ],
      "name": "idToDonationItem",
      "outputs": [
        {
          "internalType": "uint256",
          "name": "id",
          "type": "uint256"
        },
        {
          "internalType": "address payable",
          "name": "owner",
          "type": "address"
        },
        {
          "internalType": "uint256",
          "name": "donationAmount",
          "type": "uint256"
        },
        {
          "internalType": "uint256",
          "name": "startDate",
          "type": "uint256"
        },
        {
          "internalType": "uint256",
          "name": "endDate",
          "type": "uint256"
        },
        {
          "internalType": "uint256",
          "name": "targetPrice",
          "type": "uint256"
        },
        {
          "internalType": "string",
          "name": "category",
          "type": "string"
        },
        {
          "internalType": "string",
          "name": "title",
          "type": "string"
        },
        {
          "internalType": "string",
          "name": "hash",
          "type": "string"
        },
        {
          "internalType": "string",
          "name": "description",
          "type": "string"
        },
        {
          "internalType": "bool",
          "name": "completed",
          "type": "bool"
        }
      ],
      "stateMutability": "view",
      "type": "function"
    },
    {
      "inputs": [
        {
          "internalType": "string",
          "name": "_imageHash",
          "type": "string"
        },
        {
          "internalType": "string",
          "name": "_description",
          "type": "string"
        },
        {
          "internalType": "uint256",
          "name": "_endDate",
          "type": "uint256"
        },
        {
          "internalType": "string",
          "name": "_category",
          "type": "string"
        },
        {
          "internalType": "string",
          "name": "_title",
          "type": "string"
        },
        {
          "internalType": "uint256",
          "name": "_targetPrice",
          "type": "uint256"
        }
      ],
      "name": "uploadDonation",
      "outputs": [],
      "stateMutability": "nonpayable",
      "type": "function"
    }
  ],
  "bytecode": "0x60806040526000600255600060035534801561001a57600080fd5b50610d398061002a6000396000f3fe6080604052600436106100555760003560e01c80632abfab4d1461005a5780633f27607d1461008357806343ae959c146100ba578063568fefbf146100d05780637d7ecb0414610129578063d8251a141461014b575b600080fd5b34801561006657600080fd5b5061007060035481565b6040519081526020015b60405180910390f35b34801561008f57600080fd5b506100a361009e366004610b14565b61015e565b60405161007a9b9a99989796959493929190610bcf565b3480156100c657600080fd5b5061007060025481565b3480156100dc57600080fd5b506101116100eb366004610b2c565b60016020908152600092835260408084209091529082529020546001600160a01b031681565b6040516001600160a01b03909116815260200161007a565b34801561013557600080fd5b50610149610144366004610a5a565b6103e2565b005b610149610159366004610b14565b610588565b600060208190529081526040902080546001820154600283015460038401546004850154600586015460068701805496976001600160a01b039096169694959394929391926101ac90610c81565b80601f01602080910402602001604051908101604052809291908181526020018280546101d890610c81565b80156102255780601f106101fa57610100808354040283529160200191610225565b820191906000526020600020905b81548152906001019060200180831161020857829003601f168201915b50505050509080600701805461023a90610c81565b80601f016020809104026020016040519081016040528092919081815260200182805461026690610c81565b80156102b35780601f10610288576101008083540402835291602001916102b3565b820191906000526020600020905b81548152906001019060200180831161029657829003601f168201915b5050505050908060080180546102c890610c81565b80601f01602080910402602001604051908101604052809291908181526020018280546102f490610c81565b80156103415780601f1061031657610100808354040283529160200191610341565b820191906000526020600020905b81548152906001019060200180831161032457829003601f168201915b50505050509080600901805461035690610c81565b80601f016020809104026020016040519081016040528092919081815260200182805461038290610c81565b80156103cf5780601f106103a4576101008083540402835291602001916103cf565b820191906000526020600020905b8154815290600101906020018083116103b257829003601f168201915b505050600a909301549192505060ff168b565b60008651116104315760405162461bcd60e51b8152602060048201526016602482015275125b5859d94812185cda081a5cc81c995c5d5a5c995960521b60448201526064015b60405180910390fd5b60008551116104525760405162461bcd60e51b815260040161042890610b98565b60008351116104735760405162461bcd60e51b815260040161042890610b98565b60008251116104945760405162461bcd60e51b815260040161042890610b98565b3361049e57600080fd5b600380549060006104ae83610cbc565b9091555050600380546000908152602081815260408083206002808201859055600180830180546001600160a01b0319908116331790915587548752908552838620915486529084529190932080549091169055429282019290925560048101869055600581018390558451909161052d9160068401918701906108bf565b50825161054390600783019060208601906108bf565b506003548155865161055e90600883019060208a01906108bf565b50855161057490600983019060208901906108bf565b50600a01805460ff19169055505050505050565b61059181610812565b6000811180156105a357506003548111155b6105ac57600080fd5b60008181526020818152604080832080548452600190925282206002805492936105ff939091826105dc83610cbc565b9091555081526020810191909152604001600020546001600160a01b031661085a565b805461060a90610812565b610615600254610812565b600a81015460ff161561062757600080fd5b80600501548160020154111561063c57600080fd5b806005015481600201541061065b57600a8101805460ff191660011790555b60018101546040516001600160a01b039091169081903480156108fc02916000818181858888f19350505050158015610698573d6000803e3d6000fd5b503482600201546106a99190610c69565b60028301556106b73361085a565b600280549060006106c783610cbc565b9091555050815460009081526001602090815260408083206002548452909152902080546001600160a01b03191633179055815461070490610812565b61070f600254610812565b60008381526020819052604090208254815560018084015490820180546001600160a01b0319166001600160a01b0390921691909117905560028084015490820155600380840154908201556004808401549082015560058084015490820155600680840180548593928301919061078690610c81565b610791929190610943565b5060078201816007019080546107a690610c81565b6107b1929190610943565b5060088201816008019080546107c690610c81565b6107d1929190610943565b5060098201816009019080546107e690610c81565b6107f1929190610943565b50600a918201549101805460ff191660ff9092161515919091179055505050565b6108578160405160240161082891815260200190565b60408051601f198184030181529190526020810180516001600160e01b031663f5b1bba960e01b17905261089e565b50565b6040516001600160a01b03821660248201526108579060440160408051601f198184030181529190526020810180516001600160e01b031663161765e160e11b1790525b80516a636f6e736f6c652e6c6f67602083016000808483855afa5050505050565b8280546108cb90610c81565b90600052602060002090601f0160209004810192826108ed5760008555610933565b82601f1061090657805160ff1916838001178555610933565b82800160010185558215610933579182015b82811115610933578251825591602001919060010190610918565b5061093f9291506109be565b5090565b82805461094f90610c81565b90600052602060002090601f0160209004810192826109715760008555610933565b82601f106109825780548555610933565b8280016001018555821561093357600052602060002091601f016020900482015b828111156109335782548255916001019190600101906109a3565b5b8082111561093f57600081556001016109bf565b600082601f8301126109e3578081fd5b813567ffffffffffffffff808211156109fe576109fe610ced565b604051601f8301601f19908116603f01168101908282118183101715610a2657610a26610ced565b81604052838152866020858801011115610a3e578485fd5b8360208701602083013792830160200193909352509392505050565b60008060008060008060c08789031215610a72578182fd5b863567ffffffffffffffff80821115610a89578384fd5b610a958a838b016109d3565b97506020890135915080821115610aaa578384fd5b610ab68a838b016109d3565b9650604089013595506060890135915080821115610ad2578384fd5b610ade8a838b016109d3565b94506080890135915080821115610af3578384fd5b50610b0089828a016109d3565b92505060a087013590509295509295509295565b600060208284031215610b25578081fd5b5035919050565b60008060408385031215610b3e578182fd5b50508035926020909101359150565b60008151808452815b81811015610b7257602081850181015186830182015201610b56565b81811115610b835782602083870101525b50601f01601f19169290920160200192915050565b6020808252601d908201527f496d616765206465736372697074696f6e206973207265717569726564000000604082015260600190565b60006101608d835260018060a01b038d1660208401528b60408401528a60608401528960808401528860a08401528060c0840152610c0f81840189610b4d565b905082810360e0840152610c238188610b4d565b9050828103610100840152610c388187610b4d565b9050828103610120840152610c4d8186610b4d565b9150508215156101408301529c9b505050505050505050505050565b60008219821115610c7c57610c7c610cd7565b500190565b600181811c90821680610c9557607f821691505b60208210811415610cb657634e487b7160e01b600052602260045260246000fd5b50919050565b6000600019821415610cd057610cd0610cd7565b5060010190565b634e487b7160e01b600052601160045260246000fd5b634e487b7160e01b600052604160045260246000fdfea2646970667358221220d5cfced72669f14b9553b511f6bbf31945d36b895cd17d28be9107ea041f8df964736f6c63430008040033",
  "linkReferences": {},
  "deployedLinkReferences": {}
}