{
  "_format": "hh-sol-artifact-1",
  "contractName": "Donation",
  "sourceName": "contracts/Donation.sol",
  "abi": [
    {
      "inputs": [],
      "stateMutability": "nonpayable",
      "type": "constructor"
    },
    {
      "anonymous": false,
      "inputs": [
        {
          "indexed": true,
          "internalType": "uint256",
          "name": "id",
          "type": "uint256"
        },
        {
          "indexed": false,
          "internalType": "address",
          "name": "owner",
          "type": "address"
        },
        {
          "indexed": false,
          "internalType": "uint256",
          "name": "donationAmount",
          "type": "uint256"
        },
        {
          "indexed": false,
          "internalType": "uint256",
          "name": "donersConut",
          "type": "uint256"
        },
        {
          "indexed": false,
          "internalType": "uint256",
          "name": "startDate",
          "type": "uint256"
        },
        {
          "indexed": false,
          "internalType": "uint256",
          "name": "endDate",
          "type": "uint256"
        },
        {
          "indexed": false,
          "internalType": "uint256",
          "name": "targetPrice",
          "type": "uint256"
        },
        {
          "indexed": false,
          "internalType": "string",
          "name": "category",
          "type": "string"
        },
        {
          "indexed": false,
          "internalType": "string",
          "name": "title",
          "type": "string"
        },
        {
          "indexed": false,
          "internalType": "string",
          "name": "hash",
          "type": "string"
        },
        {
          "indexed": false,
          "internalType": "string",
          "name": "description",
          "type": "string"
        },
        {
          "indexed": false,
          "internalType": "bool",
          "name": "completed",
          "type": "bool"
        }
      ],
      "name": "DonationItemCreated",
      "type": "event"
    },
    {
      "anonymous": false,
      "inputs": [
        {
          "indexed": true,
          "internalType": "uint256",
          "name": "id",
          "type": "uint256"
        },
        {
          "indexed": false,
          "internalType": "address",
          "name": "sender",
          "type": "address"
        },
        {
          "indexed": false,
          "internalType": "uint256",
          "name": "donationAmount",
          "type": "uint256"
        }
      ],
      "name": "DonationTiped",
      "type": "event"
    },
    {
      "inputs": [
        {
          "internalType": "uint256",
          "name": "_id",
          "type": "uint256"
        }
      ],
      "name": "addDonation",
      "outputs": [],
      "stateMutability": "payable",
      "type": "function"
    },
    {
      "inputs": [
        {
          "internalType": "uint256",
          "name": "_amountInUsd",
          "type": "uint256"
        }
      ],
      "name": "convertEthUsd",
      "outputs": [
        {
          "internalType": "uint256",
          "name": "",
          "type": "uint256"
        }
      ],
      "stateMutability": "view",
      "type": "function"
    },
    {
      "inputs": [],
      "name": "donationCount",
      "outputs": [
        {
          "internalType": "uint256",
          "name": "",
          "type": "uint256"
        }
      ],
      "stateMutability": "view",
      "type": "function"
    },
    {
      "inputs": [
        {
          "internalType": "uint256",
          "name": "",
          "type": "uint256"
        },
        {
          "internalType": "uint256",
          "name": "",
          "type": "uint256"
        }
      ],
      "name": "doners",
      "outputs": [
        {
          "internalType": "address",
          "name": "",
          "type": "address"
        }
      ],
      "stateMutability": "view",
      "type": "function"
    },
    {
      "inputs": [],
      "name": "donersCount",
      "outputs": [
        {
          "internalType": "uint256",
          "name": "",
          "type": "uint256"
        }
      ],
      "stateMutability": "view",
      "type": "function"
    },
    {
      "inputs": [],
      "name": "getEthUsd",
      "outputs": [
        {
          "internalType": "uint256",
          "name": "",
          "type": "uint256"
        }
      ],
      "stateMutability": "view",
      "type": "function"
    },
    {
      "inputs": [
        {
          "internalType": "uint256",
          "name": "",
          "type": "uint256"
        }
      ],
      "name": "idToDonationItem",
      "outputs": [
        {
          "internalType": "uint256",
          "name": "id",
          "type": "uint256"
        },
        {
          "internalType": "address payable",
          "name": "owner",
          "type": "address"
        },
        {
          "internalType": "uint256",
          "name": "donationAmount",
          "type": "uint256"
        },
        {
          "internalType": "uint256",
          "name": "startDate",
          "type": "uint256"
        },
        {
          "internalType": "uint256",
          "name": "endDate",
          "type": "uint256"
        },
        {
          "internalType": "uint256",
          "name": "targetPrice",
          "type": "uint256"
        },
        {
          "internalType": "string",
          "name": "category",
          "type": "string"
        },
        {
          "internalType": "string",
          "name": "title",
          "type": "string"
        },
        {
          "internalType": "string",
          "name": "hash",
          "type": "string"
        },
        {
          "internalType": "string",
          "name": "description",
          "type": "string"
        },
        {
          "internalType": "bool",
          "name": "completed",
          "type": "bool"
        }
      ],
      "stateMutability": "view",
      "type": "function"
    },
    {
      "inputs": [
        {
          "internalType": "string",
          "name": "_imageHash",
          "type": "string"
        },
        {
          "internalType": "string",
          "name": "_description",
          "type": "string"
        },
        {
          "internalType": "uint256",
          "name": "_endDate",
          "type": "uint256"
        },
        {
          "internalType": "string",
          "name": "_category",
          "type": "string"
        },
        {
          "internalType": "string",
          "name": "_title",
          "type": "string"
        },
        {
          "internalType": "uint256",
          "name": "_targetPrice",
          "type": "uint256"
        }
      ],
      "name": "uploadDonation",
      "outputs": [],
      "stateMutability": "nonpayable",
      "type": "function"
    }
  ],
  "bytecode": "0x60806040526000600355600060045534801561001a57600080fd5b50600080546001600160a01b031916739326bfa02add2366b30bacb125260af641031331179055610e3d806100506000396000f3fe60806040526004361061007b5760003560e01c80637d7ecb041161004e5780637d7ecb041461014f5780639534b3bf14610171578063bb27e0ce14610191578063d8251a14146101a657600080fd5b80632abfab4d146100805780633f27607d146100a957806343ae959c146100e0578063568fefbf146100f6575b600080fd5b34801561008c57600080fd5b5061009660045481565b6040519081526020015b60405180910390f35b3480156100b557600080fd5b506100c96100c4366004610b8a565b6101b9565b6040516100a09b9a99989796959493929190610c94565b3480156100ec57600080fd5b5061009660035481565b34801561010257600080fd5b50610137610111366004610ba2565b60026020908152600092835260408084209091529082529020546001600160a01b031681565b6040516001600160a01b0390911681526020016100a0565b34801561015b57600080fd5b5061016f61016a366004610ad0565b61043e565b005b34801561017d57600080fd5b5061009661018c366004610b8a565b6105e6565b34801561019d57600080fd5b50610096610615565b61016f6101b4366004610b8a565b6106a7565b600160208190526000918252604090912080549181015460028201546003830154600484015460058501546006860180546001600160a01b039096169694959394929391929161020890610d85565b80601f016020809104026020016040519081016040528092919081815260200182805461023490610d85565b80156102815780601f1061025657610100808354040283529160200191610281565b820191906000526020600020905b81548152906001019060200180831161026457829003601f168201915b50505050509080600701805461029690610d85565b80601f01602080910402602001604051908101604052809291908181526020018280546102c290610d85565b801561030f5780601f106102e45761010080835404028352916020019161030f565b820191906000526020600020905b8154815290600101906020018083116102f257829003601f168201915b50505050509080600801805461032490610d85565b80601f016020809104026020016040519081016040528092919081815260200182805461035090610d85565b801561039d5780601f106103725761010080835404028352916020019161039d565b820191906000526020600020905b81548152906001019060200180831161038057829003601f168201915b5050505050908060090180546103b290610d85565b80601f01602080910402602001604051908101604052809291908181526020018280546103de90610d85565b801561042b5780601f106104005761010080835404028352916020019161042b565b820191906000526020600020905b81548152906001019060200180831161040e57829003601f168201915b505050600a909301549192505060ff168b565b600086511161048d5760405162461bcd60e51b8152602060048201526016602482015275125b5859d94812185cda081a5cc81c995c5d5a5c995960521b60448201526064015b60405180910390fd5b60008551116104ae5760405162461bcd60e51b815260040161048490610c5d565b60008351116104cf5760405162461bcd60e51b815260040161048490610c5d565b60008251116104f05760405162461bcd60e51b815260040161048490610c5d565b336104fa57600080fd5b6004805490600061050a83610dc0565b9091555050600480546000908152600160208181526040808420600280820186905593810180546001600160a01b03199081163317909155865486529383528185206003805487529084529190942080549093169092554291830191909155918101869055600581018390558451909161058b91600684019187019061091a565b5082516105a1906007830190602086019061091a565b50600454815586516105bc90600883019060208a019061091a565b5085516105d2906009830190602089019061091a565b50600a01805460ff19169055505050505050565b6000806105f1610615565b905061060e8161060885662386f26fc100006108ac565b906108b8565b9392505050565b6000805460408051633fabe5a360e21b8152905183926001600160a01b03169163feaf968c9160048083019260a0929190829003018186803b15801561065a57600080fd5b505afa15801561066e573d6000803e3d6000fd5b505050506040513d601f19601f820116820180604052508101906106929190610bc3565b5050509150506106a1816108c4565b91505090565b6000811180156106b957506004548111155b6106c257600080fd5b6000818152600160205260409020600a81015460ff16156106e257600080fd5b8060050154816002015411156106f757600080fd5b806005015481600201541061071657600a8101805460ff191660011790555b60018101546040516001600160a01b039091169081903480156108fc02916000818181858888f19350505050158015610753573d6000803e3d6000fd5b503482600201546107649190610d2e565b60028301556003805490600061077983610dc0565b90915550508154600090815260026020818152604080842060038054865290835281852080546001600160a01b0319908116331790915588865260019384905291909420865481558287015492810180549092166001600160a01b0393909316929092179055848201549181019190915581840154918101919091556004808401549082015560058084015490820155600680840180548593928301919061082090610d85565b61082b92919061099a565b50600782018160070190805461084090610d85565b61084b92919061099a565b50600882018160080190805461086090610d85565b61086b92919061099a565b50600982018160090190805461088090610d85565b61088b92919061099a565b50600a918201549101805460ff191660ff9092161515919091179055505050565b600061060e8284610d66565b600061060e8284610d46565b6000808212156109165760405162461bcd60e51b815260206004820181905260248201527f53616665436173743a2076616c7565206d75737420626520706f7369746976656044820152606401610484565b5090565b82805461092690610d85565b90600052602060002090601f016020900481019282610948576000855561098e565b82601f1061096157805160ff191683800117855561098e565b8280016001018555821561098e579182015b8281111561098e578251825591602001919060010190610973565b50610916929150610a15565b8280546109a690610d85565b90600052602060002090601f0160209004810192826109c8576000855561098e565b82601f106109d9578054855561098e565b8280016001018555821561098e57600052602060002091601f016020900482015b8281111561098e5782548255916001019190600101906109fa565b5b808211156109165760008155600101610a16565b600082601f830112610a3a578081fd5b813567ffffffffffffffff80821115610a5557610a55610df1565b604051601f8301601f19908116603f01168101908282118183101715610a7d57610a7d610df1565b81604052838152866020858801011115610a95578485fd5b8360208701602083013792830160200193909352509392505050565b805169ffffffffffffffffffff81168114610acb57600080fd5b919050565b60008060008060008060c08789031215610ae8578182fd5b863567ffffffffffffffff80821115610aff578384fd5b610b0b8a838b01610a2a565b97506020890135915080821115610b20578384fd5b610b2c8a838b01610a2a565b9650604089013595506060890135915080821115610b48578384fd5b610b548a838b01610a2a565b94506080890135915080821115610b69578384fd5b50610b7689828a01610a2a565b92505060a087013590509295509295509295565b600060208284031215610b9b578081fd5b5035919050565b60008060408385031215610bb4578182fd5b50508035926020909101359150565b600080600080600060a08688031215610bda578081fd5b610be386610ab1565b9450602086015193506040860151925060608601519150610c0660808701610ab1565b90509295509295909350565b60008151808452815b81811015610c3757602081850181015186830182015201610c1b565b81811115610c485782602083870101525b50601f01601f19169290920160200192915050565b6020808252601d908201527f496d616765206465736372697074696f6e206973207265717569726564000000604082015260600190565b60006101608d835260018060a01b038d1660208401528b60408401528a60608401528960808401528860a08401528060c0840152610cd481840189610c12565b905082810360e0840152610ce88188610c12565b9050828103610100840152610cfd8187610c12565b9050828103610120840152610d128186610c12565b9150508215156101408301529c9b505050505050505050505050565b60008219821115610d4157610d41610ddb565b500190565b600082610d6157634e487b7160e01b81526012600452602481fd5b500490565b6000816000190483118215151615610d8057610d80610ddb565b500290565b600181811c90821680610d9957607f821691505b60208210811415610dba57634e487b7160e01b600052602260045260246000fd5b50919050565b6000600019821415610dd457610dd4610ddb565b5060010190565b634e487b7160e01b600052601160045260246000fd5b634e487b7160e01b600052604160045260246000fdfea2646970667358221220b66f6e63497e1e34dfc46fd0c2ab804a828a5d61818c23afc64565125ad9b97964736f6c63430008040033",
  "linkReferences": {},
  "deployedLinkReferences": {}
}